{
  "address": "0xe7f1725E7734CE288F8367e1Bb143E90bb3F0512",
  "abi": [
    {
      "inputs": [
        {
          "internalType": "address",
          "name": "priceFeedAddress",
          "type": "address"
        }
      ],
      "stateMutability": "nonpayable",
      "type": "constructor"
    },
    {
      "inputs": [],
      "name": "FundMe__notOwner",
      "type": "error"
    },
    {
      "inputs": [],
      "name": "MIN_USD",
      "outputs": [
        {
          "internalType": "uint256",
          "name": "",
          "type": "uint256"
        }
      ],
      "stateMutability": "view",
      "type": "function"
    },
    {
      "inputs": [],
      "name": "cheaperWithdraw",
      "outputs": [],
      "stateMutability": "nonpayable",
      "type": "function"
    },
    {
      "inputs": [],
      "name": "fund",
      "outputs": [],
      "stateMutability": "payable",
      "type": "function"
    },
    {
      "inputs": [
        {
          "internalType": "address",
          "name": "funderAddress",
          "type": "address"
        }
      ],
      "name": "getAddressToAmtFunded",
      "outputs": [
        {
          "internalType": "uint256",
          "name": "",
          "type": "uint256"
        }
      ],
      "stateMutability": "view",
      "type": "function"
    },
    {
      "inputs": [
        {
          "internalType": "uint256",
          "name": "ethAmount",
          "type": "uint256"
        },
        {
          "internalType": "contract AggregatorV3Interface",
          "name": "s_PriceFeed",
          "type": "address"
        }
      ],
      "name": "getConversionRate",
      "outputs": [
        {
          "internalType": "uint256",
          "name": "",
          "type": "uint256"
        }
      ],
      "stateMutability": "view",
      "type": "function"
    },
    {
      "inputs": [
        {
          "internalType": "uint256",
          "name": "index",
          "type": "uint256"
        }
      ],
      "name": "getFunder",
      "outputs": [
        {
          "internalType": "address",
          "name": "",
          "type": "address"
        }
      ],
      "stateMutability": "view",
      "type": "function"
    },
    {
      "inputs": [],
      "name": "getOwner",
      "outputs": [
        {
          "internalType": "address",
          "name": "",
          "type": "address"
        }
      ],
      "stateMutability": "view",
      "type": "function"
    },
    {
      "inputs": [
        {
          "internalType": "contract AggregatorV3Interface",
          "name": "s_PriceFeed",
          "type": "address"
        }
      ],
      "name": "getPrice",
      "outputs": [
        {
          "internalType": "uint256",
          "name": "",
          "type": "uint256"
        }
      ],
      "stateMutability": "view",
      "type": "function"
    },
    {
      "inputs": [],
      "name": "getPriceFeed",
      "outputs": [
        {
          "internalType": "contract AggregatorV3Interface",
          "name": "",
          "type": "address"
        }
      ],
      "stateMutability": "view",
      "type": "function"
    },
    {
      "inputs": [],
      "name": "withdraw",
      "outputs": [],
      "stateMutability": "nonpayable",
      "type": "function"
    }
  ],
  "transactionHash": "0x2392a6cf2e4e6bbdd75be750f53c5e283d4c652fb689fb10e783bb39681671b2",
  "args": [
    "0x5FbDB2315678afecb367f032d93F642f64180aa3"
  ],
  "numDeployments": 1,
  "solcInputHash": "b093144ec2e3d6d7afddc57c42e026af",
  "bytecode": "0x60a0604052600080553480156200001557600080fd5b50604051620013423803806200134283398181016040528101906200003b919062000121565b3373ffffffffffffffffffffffffffffffffffffffff1660808173ffffffffffffffffffffffffffffffffffffffff168152505080600360006101000a81548173ffffffffffffffffffffffffffffffffffffffff021916908373ffffffffffffffffffffffffffffffffffffffff1602179055505062000153565b600080fd5b600073ffffffffffffffffffffffffffffffffffffffff82169050919050565b6000620000e982620000bc565b9050919050565b620000fb81620000dc565b81146200010757600080fd5b50565b6000815190506200011b81620000f0565b92915050565b6000602082840312156200013a5762000139620000b7565b5b60006200014a848285016200010a565b91505092915050565b6080516111c56200017d600039600081816102510152818161052501526106ee01526111c56000f3fe6080604052600436106100915760003560e01c80639e87a5cd116100595780639e87a5cd1461017d578063b60d4288146101a8578063be2693f0146101b2578063d7b4750c146101c9578063fbaa15981461020657610091565b8063213dbea2146100965780633ccfd60b146100c157806341976e09146100d8578063893d20e81461011557806398e70cf914610140575b600080fd5b3480156100a257600080fd5b506100ab610243565b6040516100b89190610ae2565b60405180910390f35b3480156100cd57600080fd5b506100d661024f565b005b3480156100e457600080fd5b506100ff60048036038101906100fa9190610b72565b610490565b60405161010c9190610ae2565b60405180910390f35b34801561012157600080fd5b5061012a610521565b6040516101379190610bae565b60405180910390f35b34801561014c57600080fd5b5061016760048036038101906101629190610bf5565b610549565b6040516101749190610ae2565b60405180910390f35b34801561018957600080fd5b50610192610585565b60405161019f9190610c94565b60405180910390f35b6101b06105af565b005b3480156101be57600080fd5b506101c76106ec565b005b3480156101d557600080fd5b506101f060048036038101906101eb9190610caf565b610991565b6040516101fd9190610bae565b60405180910390f35b34801561021257600080fd5b5061022d60048036038101906102289190610d08565b6109d9565b60405161023a9190610ae2565b60405180910390f35b674563918244f4000081565b7f000000000000000000000000000000000000000000000000000000000000000073ffffffffffffffffffffffffffffffffffffffff163373ffffffffffffffffffffffffffffffffffffffff16146102d4576040517f8186952400000000000000000000000000000000000000000000000000000000815260040160405180910390fd5b60005b600180549050811015610380576000600182815481106102fa576102f9610d35565b5b9060005260206000200160009054906101000a900473ffffffffffffffffffffffffffffffffffffffff1690506000600260008373ffffffffffffffffffffffffffffffffffffffff1673ffffffffffffffffffffffffffffffffffffffff1681526020019081526020016000208190555050808061037890610d93565b9150506102d7565b50600067ffffffffffffffff81111561039c5761039b610ddb565b5b6040519080825280602002602001820160405280156103ca5781602001602082028036833780820191505090505b50600190805190602001906103e0929190610a22565b5060003373ffffffffffffffffffffffffffffffffffffffff164760405161040790610e3b565b60006040518083038185875af1925050503d8060008114610444576040519150601f19603f3d011682016040523d82523d6000602084013e610449565b606091505b505090508061048d576040517f08c379a000000000000000000000000000000000000000000000000000000000815260040161048490610ead565b60405180910390fd5b50565b6000808273ffffffffffffffffffffffffffffffffffffffff1663feaf968c6040518163ffffffff1660e01b815260040160a060405180830381865afa1580156104de573d6000803e3d6000fd5b505050506040513d601f19601f820116820180604052508101906105029190610f5a565b5050509150506402540be400816105199190610fd5565b915050919050565b60007f0000000000000000000000000000000000000000000000000000000000000000905090565b60008061055583610490565b90506000670de0b6b3a7640000828661056e919061104d565b61057891906110be565b9050809250505092915050565b6000600360009054906101000a900473ffffffffffffffffffffffffffffffffffffffff16905090565b60006105dd34600360009054906101000a900473ffffffffffffffffffffffffffffffffffffffff16610549565b9050674563918244f4000081101561062a576040517f08c379a00000000000000000000000000000000000000000000000000000000081526004016106219061113b565b60405180910390fd5b6001339080600181540180825580915050600190039060005260206000200160009091909190916101000a81548173ffffffffffffffffffffffffffffffffffffffff021916908373ffffffffffffffffffffffffffffffffffffffff16021790555034600260003373ffffffffffffffffffffffffffffffffffffffff1673ffffffffffffffffffffffffffffffffffffffff16815260200190815260200160002081905550346000808282546106e2919061115b565b9250508190555050565b7f000000000000000000000000000000000000000000000000000000000000000073ffffffffffffffffffffffffffffffffffffffff163373ffffffffffffffffffffffffffffffffffffffff1614610771576040517f8186952400000000000000000000000000000000000000000000000000000000815260040160405180910390fd5b600060018054806020026020016040519081016040528092919081815260200182805480156107f557602002820191906000526020600020905b8160009054906101000a900473ffffffffffffffffffffffffffffffffffffffff1673ffffffffffffffffffffffffffffffffffffffff16815260200190600101908083116107ab575b5050505050905060005b815181101561088057600082828151811061081d5761081c610d35565b5b602002602001015190506000600260008373ffffffffffffffffffffffffffffffffffffffff1673ffffffffffffffffffffffffffffffffffffffff1681526020019081526020016000208190555050808061087890610d93565b9150506107ff565b50600067ffffffffffffffff81111561089c5761089b610ddb565b5b6040519080825280602002602001820160405280156108ca5781602001602082028036833780820191505090505b50600190805190602001906108e0929190610a22565b5060003373ffffffffffffffffffffffffffffffffffffffff164760405161090790610e3b565b60006040518083038185875af1925050503d8060008114610944576040519150601f19603f3d011682016040523d82523d6000602084013e610949565b606091505b505090508061098d576040517f08c379a000000000000000000000000000000000000000000000000000000000815260040161098490610ead565b60405180910390fd5b5050565b6000600182815481106109a7576109a6610d35565b5b9060005260206000200160009054906101000a900473ffffffffffffffffffffffffffffffffffffffff169050919050565b6000600260008373ffffffffffffffffffffffffffffffffffffffff1673ffffffffffffffffffffffffffffffffffffffff168152602001908152602001600020549050919050565b828054828255906000526020600020908101928215610a9b579160200282015b82811115610a9a5782518260006101000a81548173ffffffffffffffffffffffffffffffffffffffff021916908373ffffffffffffffffffffffffffffffffffffffff16021790555091602001919060010190610a42565b5b509050610aa89190610aac565b5090565b5b80821115610ac5576000816000905550600101610aad565b5090565b6000819050919050565b610adc81610ac9565b82525050565b6000602082019050610af76000830184610ad3565b92915050565b600080fd5b600073ffffffffffffffffffffffffffffffffffffffff82169050919050565b6000610b2d82610b02565b9050919050565b6000610b3f82610b22565b9050919050565b610b4f81610b34565b8114610b5a57600080fd5b50565b600081359050610b6c81610b46565b92915050565b600060208284031215610b8857610b87610afd565b5b6000610b9684828501610b5d565b91505092915050565b610ba881610b22565b82525050565b6000602082019050610bc36000830184610b9f565b92915050565b610bd281610ac9565b8114610bdd57600080fd5b50565b600081359050610bef81610bc9565b92915050565b60008060408385031215610c0c57610c0b610afd565b5b6000610c1a85828601610be0565b9250506020610c2b85828601610b5d565b9150509250929050565b6000819050919050565b6000610c5a610c55610c5084610b02565b610c35565b610b02565b9050919050565b6000610c6c82610c3f565b9050919050565b6000610c7e82610c61565b9050919050565b610c8e81610c73565b82525050565b6000602082019050610ca96000830184610c85565b92915050565b600060208284031215610cc557610cc4610afd565b5b6000610cd384828501610be0565b91505092915050565b610ce581610b22565b8114610cf057600080fd5b50565b600081359050610d0281610cdc565b92915050565b600060208284031215610d1e57610d1d610afd565b5b6000610d2c84828501610cf3565b91505092915050565b7f4e487b7100000000000000000000000000000000000000000000000000000000600052603260045260246000fd5b7f4e487b7100000000000000000000000000000000000000000000000000000000600052601160045260246000fd5b6000610d9e82610ac9565b91507fffffffffffffffffffffffffffffffffffffffffffffffffffffffffffffffff8203610dd057610dcf610d64565b5b600182019050919050565b7f4e487b7100000000000000000000000000000000000000000000000000000000600052604160045260246000fd5b600081905092915050565b50565b6000610e25600083610e0a565b9150610e3082610e15565b600082019050919050565b6000610e4682610e18565b9150819050919050565b600082825260208201905092915050565b7f53656e64204661696c6564000000000000000000000000000000000000000000600082015250565b6000610e97600b83610e50565b9150610ea282610e61565b602082019050919050565b60006020820190508181036000830152610ec681610e8a565b9050919050565b600069ffffffffffffffffffff82169050919050565b610eec81610ecd565b8114610ef757600080fd5b50565b600081519050610f0981610ee3565b92915050565b6000819050919050565b610f2281610f0f565b8114610f2d57600080fd5b50565b600081519050610f3f81610f19565b92915050565b600081519050610f5481610bc9565b92915050565b600080600080600060a08688031215610f7657610f75610afd565b5b6000610f8488828901610efa565b9550506020610f9588828901610f30565b9450506040610fa688828901610f45565b9350506060610fb788828901610f45565b9250506080610fc888828901610efa565b9150509295509295909350565b6000610fe082610f0f565b9150610feb83610f0f565b9250828202610ff981610f0f565b91507f8000000000000000000000000000000000000000000000000000000000000000841460008412161561103157611030610d64565b5b828205841483151761104657611045610d64565b5b5092915050565b600061105882610ac9565b915061106383610ac9565b925082820261107181610ac9565b9150828204841483151761108857611087610d64565b5b5092915050565b7f4e487b7100000000000000000000000000000000000000000000000000000000600052601260045260246000fd5b60006110c982610ac9565b91506110d483610ac9565b9250826110e4576110e361108f565b5b828204905092915050565b7f4e6f7420456e6f7567682066756e64732073656e740000000000000000000000600082015250565b6000611125601583610e50565b9150611130826110ef565b602082019050919050565b6000602082019050818103600083015261115481611118565b9050919050565b600061116682610ac9565b915061117183610ac9565b925082820190508082111561118957611188610d64565b5b9291505056fea2646970667358221220e3dfde69bee5fe8097731d568c5fb77f1220363a0c82a8cf0e0b993a1baaec2064736f6c63430008110033",
  "devdoc": {
    "kind": "dev",
    "methods": {},
    "version": 1
  },
  "userdoc": {
    "kind": "user",
    "methods": {},
    "version": 1
  },
  "storageLayout": {
    "storage": [
      {
        "astId": 54,
        "contract": "contracts/FundMe.sol:FundMe",
        "label": "s_fundsInContract",
        "offset": 0,
        "slot": "0",
        "type": "t_uint256"
      },
      {
        "astId": 62,
        "contract": "contracts/FundMe.sol:FundMe",
        "label": "s_funders",
        "offset": 0,
        "slot": "1",
        "type": "t_array(t_address)dyn_storage"
      },
      {
        "astId": 66,
        "contract": "contracts/FundMe.sol:FundMe",
        "label": "s_addressToAmtFunded",
        "offset": 0,
        "slot": "2",
        "type": "t_mapping(t_address,t_uint256)"
      },
      {
        "astId": 71,
        "contract": "contracts/FundMe.sol:FundMe",
        "label": "s_priceFeed",
        "offset": 0,
        "slot": "3",
        "type": "t_contract(AggregatorV3Interface)45"
      }
    ],
    "types": {
      "t_address": {
        "encoding": "inplace",
        "label": "address",
        "numberOfBytes": "20"
      },
      "t_array(t_address)dyn_storage": {
        "base": "t_address",
        "encoding": "dynamic_array",
        "label": "address[]",
        "numberOfBytes": "32"
      },
      "t_contract(AggregatorV3Interface)45": {
        "encoding": "inplace",
        "label": "contract AggregatorV3Interface",
        "numberOfBytes": "20"
      },
      "t_mapping(t_address,t_uint256)": {
        "encoding": "mapping",
        "key": "t_address",
        "label": "mapping(address => uint256)",
        "numberOfBytes": "32",
        "value": "t_uint256"
      },
      "t_uint256": {
        "encoding": "inplace",
        "label": "uint256",
        "numberOfBytes": "32"
      }
    }
  }
}